{
  "contractName": "Betting",
  "abi": [
    {
      "inputs": [],
      "stateMutability": "nonpayable",
      "type": "constructor"
    },
    {
      "anonymous": false,
      "inputs": [
        {
          "indexed": true,
          "internalType": "uint256",
          "name": "marketId",
          "type": "uint256"
        },
        {
          "indexed": true,
          "internalType": "address",
          "name": "bettor",
          "type": "address"
        },
        {
          "indexed": false,
          "internalType": "uint8",
          "name": "team",
          "type": "uint8"
        },
        {
          "indexed": false,
          "internalType": "uint256",
          "name": "amount",
          "type": "uint256"
        }
      ],
      "name": "BetPlaced",
      "type": "event"
    },
    {
      "anonymous": false,
      "inputs": [
        {
          "indexed": true,
          "internalType": "uint256",
          "name": "marketId",
          "type": "uint256"
        },
        {
          "indexed": false,
          "internalType": "string",
          "name": "sport",
          "type": "string"
        },
        {
          "indexed": false,
          "internalType": "string",
          "name": "teamA",
          "type": "string"
        },
        {
          "indexed": false,
          "internalType": "string",
          "name": "teamB",
          "type": "string"
        },
        {
          "indexed": false,
          "internalType": "uint256",
          "name": "cutoffTime",
          "type": "uint256"
        }
      ],
      "name": "MarketCreated",
      "type": "event"
    },
    {
      "anonymous": false,
      "inputs": [
        {
          "indexed": true,
          "internalType": "uint256",
          "name": "marketId",
          "type": "uint256"
        },
        {
          "indexed": false,
          "internalType": "uint8",
          "name": "winningTeam",
          "type": "uint8"
        }
      ],
      "name": "MarketSettled",
      "type": "event"
    },
    {
      "anonymous": false,
      "inputs": [
        {
          "indexed": true,
          "internalType": "uint256",
          "name": "marketId",
          "type": "uint256"
        }
      ],
      "name": "MarketVoided",
      "type": "event"
    },
    {
      "anonymous": false,
      "inputs": [
        {
          "indexed": true,
          "internalType": "uint256",
          "name": "marketId",
          "type": "uint256"
        },
        {
          "indexed": true,
          "internalType": "address",
          "name": "bettor",
          "type": "address"
        },
        {
          "indexed": false,
          "internalType": "uint256",
          "name": "amount",
          "type": "uint256"
        }
      ],
      "name": "WinningsClaimed",
      "type": "event"
    },
    {
      "inputs": [
        {
          "internalType": "uint256",
          "name": "",
          "type": "uint256"
        },
        {
          "internalType": "address",
          "name": "",
          "type": "address"
        }
      ],
      "name": "betsTeamA",
      "outputs": [
        {
          "internalType": "uint256",
          "name": "",
          "type": "uint256"
        }
      ],
      "stateMutability": "view",
      "type": "function",
      "constant": true
    },
    {
      "inputs": [
        {
          "internalType": "uint256",
          "name": "",
          "type": "uint256"
        },
        {
          "internalType": "address",
          "name": "",
          "type": "address"
        }
      ],
      "name": "betsTeamB",
      "outputs": [
        {
          "internalType": "uint256",
          "name": "",
          "type": "uint256"
        }
      ],
      "stateMutability": "view",
      "type": "function",
      "constant": true
    },
    {
      "inputs": [
        {
          "internalType": "uint256",
          "name": "",
          "type": "uint256"
        },
        {
          "internalType": "address",
          "name": "",
          "type": "address"
        }
      ],
      "name": "claimed",
      "outputs": [
        {
          "internalType": "bool",
          "name": "",
          "type": "bool"
        }
      ],
      "stateMutability": "view",
      "type": "function",
      "constant": true
    },
    {
      "inputs": [
        {
          "internalType": "uint256",
          "name": "",
          "type": "uint256"
        }
      ],
      "name": "markets",
      "outputs": [
        {
          "internalType": "uint256",
          "name": "id",
          "type": "uint256"
        },
        {
          "internalType": "string",
          "name": "sport",
          "type": "string"
        },
        {
          "internalType": "string",
          "name": "teamA",
          "type": "string"
        },
        {
          "internalType": "string",
          "name": "teamB",
          "type": "string"
        },
        {
          "internalType": "uint256",
          "name": "cutoffTime",
          "type": "uint256"
        },
        {
          "internalType": "uint8",
          "name": "winningTeam",
          "type": "uint8"
        },
        {
          "internalType": "enum Betting.MarketStatus",
          "name": "status",
          "type": "uint8"
        },
        {
          "internalType": "uint256",
          "name": "totalPoolTeamA",
          "type": "uint256"
        },
        {
          "internalType": "uint256",
          "name": "totalPoolTeamB",
          "type": "uint256"
        }
      ],
      "stateMutability": "view",
      "type": "function",
      "constant": true
    },
    {
      "inputs": [],
      "name": "nextMarketId",
      "outputs": [
        {
          "internalType": "uint256",
          "name": "",
          "type": "uint256"
        }
      ],
      "stateMutability": "view",
      "type": "function",
      "constant": true
    },
    {
      "inputs": [],
      "name": "owner",
      "outputs": [
        {
          "internalType": "address",
          "name": "",
          "type": "address"
        }
      ],
      "stateMutability": "view",
      "type": "function",
      "constant": true
    },
    {
      "inputs": [
        {
          "internalType": "string",
          "name": "_sport",
          "type": "string"
        },
        {
          "internalType": "string",
          "name": "_teamA",
          "type": "string"
        },
        {
          "internalType": "string",
          "name": "_teamB",
          "type": "string"
        },
        {
          "internalType": "uint256",
          "name": "_cutoffTime",
          "type": "uint256"
        }
      ],
      "name": "createMarket",
      "outputs": [],
      "stateMutability": "nonpayable",
      "type": "function"
    },
    {
      "inputs": [
        {
          "internalType": "uint256",
          "name": "_marketId",
          "type": "uint256"
        },
        {
          "internalType": "uint8",
          "name": "_team",
          "type": "uint8"
        }
      ],
      "name": "placeBet",
      "outputs": [],
      "stateMutability": "payable",
      "type": "function",
      "payable": true
    },
    {
      "inputs": [
        {
          "internalType": "uint256",
          "name": "_marketId",
          "type": "uint256"
        },
        {
          "internalType": "uint8",
          "name": "_winningTeam",
          "type": "uint8"
        }
      ],
      "name": "settleMarket",
      "outputs": [],
      "stateMutability": "nonpayable",
      "type": "function"
    },
    {
      "inputs": [
        {
          "internalType": "uint256",
          "name": "_marketId",
          "type": "uint256"
        }
      ],
      "name": "voidMarket",
      "outputs": [],
      "stateMutability": "nonpayable",
      "type": "function"
    },
    {
      "inputs": [
        {
          "internalType": "uint256",
          "name": "_marketId",
          "type": "uint256"
        }
      ],
      "name": "claim",
      "outputs": [],
      "stateMutability": "nonpayable",
      "type": "function"
    },
    {
      "inputs": [
        {
          "internalType": "uint256",
          "name": "_marketId",
          "type": "uint256"
        }
      ],
      "name": "refund",
      "outputs": [],
      "stateMutability": "nonpayable",
      "type": "function"
    },
    {
      "inputs": [
        {
          "internalType": "uint256",
          "name": "_marketId",
          "type": "uint256"
        }
      ],
      "name": "getMarket",
      "outputs": [
        {
          "internalType": "string",
          "name": "",
          "type": "string"
        },
        {
          "internalType": "string",
          "name": "",
          "type": "string"
        },
        {
          "internalType": "string",
          "name": "",
          "type": "string"
        },
        {
          "internalType": "uint256",
          "name": "",
          "type": "uint256"
        },
        {
          "internalType": "uint8",
          "name": "",
          "type": "uint8"
        },
        {
          "internalType": "enum Betting.MarketStatus",
          "name": "",
          "type": "uint8"
        },
        {
          "internalType": "uint256",
          "name": "",
          "type": "uint256"
        },
        {
          "internalType": "uint256",
          "name": "",
          "type": "uint256"
        }
      ],
      "stateMutability": "view",
      "type": "function",
      "constant": true
    },
    {
      "inputs": [
        {
          "internalType": "uint256",
          "name": "_marketId",
          "type": "uint256"
        },
        {
          "internalType": "address",
          "name": "_user",
          "type": "address"
        }
      ],
      "name": "getUserStake",
      "outputs": [
        {
          "internalType": "uint256",
          "name": "stakeA",
          "type": "uint256"
        },
        {
          "internalType": "uint256",
          "name": "stakeB",
          "type": "uint256"
        }
      ],
      "stateMutability": "view",
      "type": "function",
      "constant": true
    }
  ],
  "bytecode": "0x608060405234801561001057600080fd5b50600080546001600160a01b03191633179055611911806100326000396000f3fe6080604052600436106100dd5760003560e01c806376e004061161007f5780639626a230116100595780639626a2301461029357806396f757f5146102ff578063b1283e771461031f578063eb44fdd31461035457600080fd5b806376e004061461020357806377f19bc7146102235780638da5cb5b1461025b57600080fd5b8063278ecde1116100bb578063278ecde11461018d578063379607f5146101ad578063406ef2ef146101cd5780635b7aa7bd146101e357600080fd5b806303edf914146100e2578063120aa877146100f7578063226d36b714610147575b600080fd5b6100f56100f0366004611359565b610388565b005b34801561010357600080fd5b5061013261011236600461138f565b600560209081526000928352604080842090915290825290205460ff1681565b60405190151581526020015b60405180910390f35b34801561015357600080fd5b5061017f61016236600461138f565b600360209081526000928352604080842090915290825290205481565b60405190815260200161013e565b34801561019957600080fd5b506100f56101a83660046113c0565b6105da565b3480156101b957600080fd5b506100f56101c83660046113c0565b6107ee565b3480156101d957600080fd5b5061017f60015481565b3480156101ef57600080fd5b506100f56101fe3660046113c0565b610a8f565b34801561020f57600080fd5b506100f561021e36600461147c565b610b81565b34801561022f57600080fd5b5061017f61023e36600461138f565b600460209081526000928352604080842090915290825290205481565b34801561026757600080fd5b5060005461027b906001600160a01b031681565b6040516001600160a01b03909116815260200161013e565b34801561029f57600080fd5b506102ea6102ae36600461138f565b60008281526003602090815260408083206001600160a01b03909416808452938252808320549483526004825280832093835292905220549091565b6040805192835260208301919091520161013e565b34801561030b57600080fd5b506100f561031a366004611359565b610d4e565b34801561032b57600080fd5b5061033f61033a3660046113c0565b610eba565b60405161013e9998979695949392919061158a565b34801561036057600080fd5b5061037461036f3660046113c0565b6110a2565b60405161013e989796959493929190611603565b8160015481106103b35760405162461bcd60e51b81526004016103aa90611674565b60405180910390fd5b6000838152600260205260408120906005820154610100900460ff1660028111156103e0576103e0611552565b1461041f5760405162461bcd60e51b815260206004820152600f60248201526e26b0b935b2ba103737ba1037b832b760891b60448201526064016103aa565b806004015442106104635760405162461bcd60e51b815260206004820152600e60248201526d10995d1d1a5b99c818db1bdcd95960921b60448201526064016103aa565b600034116104a15760405162461bcd60e51b815260206004820152600b60248201526a139bc8115512081cd95b9d60aa1b60448201526064016103aa565b8260ff16600114806104b657508260ff166002145b6104f15760405162461bcd60e51b815260206004820152600c60248201526b496e76616c6964207465616d60a01b60448201526064016103aa565b8260ff1660010361054b576000848152600360209081526040808320338452909152812080543492906105259084906116b9565b925050819055503481600601600082825461054091906116b9565b909155506105959050565b6000848152600460209081526040808320338452909152812080543492906105749084906116b9565b925050819055503481600701600082825461058f91906116b9565b90915550505b6040805160ff85168152346020820152339186917f4f1eed5e863a822b0f9eb960dfdab2cc5a99beec4b191f2a7a9c7e28e5a15524910160405180910390a350505050565b8060015481106105fc5760405162461bcd60e51b81526004016103aa90611674565b6000828152600260208190526040909120906005820154610100900460ff16600281111561062c5761062c611552565b146106665760405162461bcd60e51b815260206004820152600a602482015269139bdd081d9bda59195960b21b60448201526064016103aa565b600083815260056020908152604080832033845290915290205460ff16156106c35760405162461bcd60e51b815260206004820152601060248201526f105b1c9958591e481c99599d5b99195960821b60448201526064016103aa565b600083815260046020908152604080832033808552908352818420548785526003845282852091855292528220546106fb91906116b9565b9050600081116107415760405162461bcd60e51b8152602060048201526011602482015270139bdd1a1a5b99c81d1bc81c99599d5b99607a1b60448201526064016103aa565b6000848152600560209081526040808320338085529252808320805460ff191660011790555183908381818185875af1925050503d80600081146107a1576040519150601f19603f3d011682016040523d82523d6000602084013e6107a6565b606091505b50509050806107e75760405162461bcd60e51b815260206004820152600d60248201526c1499599d5b990819985a5b1959609a1b60448201526064016103aa565b5050505050565b8060015481106108105760405162461bcd60e51b81526004016103aa90611674565b600082815260026020526040902060016005820154610100900460ff16600281111561083e5761083e611552565b146108795760405162461bcd60e51b815260206004820152600b60248201526a139bdd081cd95d1d1b195960aa1b60448201526064016103aa565b600083815260056020908152604080832033845290915290205460ff16156108d55760405162461bcd60e51b815260206004820152600f60248201526e105b1c9958591e4818db185a5b5959608a1b60448201526064016103aa565b60058101546000908190819060ff166001036109175750505060008381526003602090815260408083203384529091529020546006820154600783015461093f565b5050506000838152600460209081526040808320338452909152902054600782015460068301545b600083116109805760405162461bcd60e51b815260206004820152600e60248201526d139bc81dda5b9b9a5b99c818995d60921b60448201526064016103aa565b60008261098d85846116d2565b61099791906116e9565b6109a190856116b9565b6000888152600560209081526040808320338085529252808320805460ff1916600117905551929350909183908381818185875af1925050503d8060008114610a06576040519150601f19603f3d011682016040523d82523d6000602084013e610a0b565b606091505b5050905080610a4e5760405162461bcd60e51b815260206004820152600f60248201526e151c985b9cd9995c8819985a5b1959608a1b60448201526064016103aa565b604051828152339089907f5380cf6fe903b40c6d5a9e0dfbca2f3a423f0a21520b4d5947ed5169bdba946d9060200160405180910390a35050505050505050565b6000546001600160a01b03163314610ab95760405162461bcd60e51b81526004016103aa9061170b565b806001548110610adb5760405162461bcd60e51b81526004016103aa90611674565b6000828152600260205260408120906005820154610100900460ff166002811115610b0857610b08611552565b14610b405760405162461bcd60e51b81526020600482015260086024820152672737ba1037b832b760c11b60448201526064016103aa565b60058101805461ff00191661020017905560405183907f195195e0299c84aaf9806e53f35fd9fa6d45ba472297297393afe457bfff771990600090a2505050565b6000546001600160a01b03163314610bab5760405162461bcd60e51b81526004016103aa9061170b565b428111610bfa5760405162461bcd60e51b815260206004820152601860248201527f4375746f6666206d75737420626520696e20667574757265000000000000000060448201526064016103aa565b6001546040805161012081018252828152602081018790529081018590526060810184905260808101839052600060a0820181905260c082019081526000602080830182905260409283018290528482526002815291902082518155908201516001820190610c6990826117b7565b5060408201516002820190610c7e90826117b7565b5060608201516003820190610c9390826117b7565b506080820151600482015560a082015160058201805460ff90921660ff1983168117825560c08501519261ffff191617610100836002811115610cd857610cd8611552565b021790555060e082015160068201556101009091015160079091015560018054906000610d0483611877565b9190505550807fa2d123850430ad736c7d9b724e8f4ac57a15f478145540d7d4f9e01af14147f686868686604051610d3f9493929190611890565b60405180910390a25050505050565b6000546001600160a01b03163314610d785760405162461bcd60e51b81526004016103aa9061170b565b816001548110610d9a5760405162461bcd60e51b81526004016103aa90611674565b6000838152600260205260408120906005820154610100900460ff166002811115610dc757610dc7611552565b14610e0d5760405162461bcd60e51b8152602060048201526016602482015275105b1c9958591e481cd95d1d1b19590bdd9bda59195960521b60448201526064016103aa565b8260ff1660011480610e2257508260ff166002145b610e655760405162461bcd60e51b8152602060048201526014602482015273496e76616c69642077696e6e696e67207465616d60601b60448201526064016103aa565b60058101805460ff851661ffff19909116811761010017909155604080519182525185917f39cbd04649449f42c2c4197eff421fa70719dcf67487a4233c1490b51ce854f7919081900360200190a250505050565b60026020526000908152604090208054600182018054919291610edc9061172e565b80601f0160208091040260200160405190810160405280929190818152602001828054610f089061172e565b8015610f555780601f10610f2a57610100808354040283529160200191610f55565b820191906000526020600020905b815481529060010190602001808311610f3857829003601f168201915b505050505090806002018054610f6a9061172e565b80601f0160208091040260200160405190810160405280929190818152602001828054610f969061172e565b8015610fe35780601f10610fb857610100808354040283529160200191610fe3565b820191906000526020600020905b815481529060010190602001808311610fc657829003601f168201915b505050505090806003018054610ff89061172e565b80601f01602080910402602001604051908101604052809291908181526020018280546110249061172e565b80156110715780601f1061104657610100808354040283529160200191611071565b820191906000526020600020905b81548152906001019060200180831161105457829003601f168201915b5050506004840154600585015460068601546007909601549495919460ff8083169550610100909204909116925089565b606080606060008060008060008860015481106110d15760405162461bcd60e51b81526004016103aa90611674565b6000600260008c8152602001908152602001600020604051806101200160405290816000820154815260200160018201805461110c9061172e565b80601f01602080910402602001604051908101604052809291908181526020018280546111389061172e565b80156111855780601f1061115a57610100808354040283529160200191611185565b820191906000526020600020905b81548152906001019060200180831161116857829003601f168201915b5050505050815260200160028201805461119e9061172e565b80601f01602080910402602001604051908101604052809291908181526020018280546111ca9061172e565b80156112175780601f106111ec57610100808354040283529160200191611217565b820191906000526020600020905b8154815290600101906020018083116111fa57829003601f168201915b505050505081526020016003820180546112309061172e565b80601f016020809104026020016040519081016040528092919081815260200182805461125c9061172e565b80156112a95780601f1061127e576101008083540402835291602001916112a9565b820191906000526020600020905b81548152906001019060200180831161128c57829003601f168201915b505050918352505060048201546020820152600582015460ff80821660408401526060909201916101009091041660028111156112e8576112e8611552565b60028111156112f9576112f9611552565b815260200160068201548152602001600782015481525050905080602001518160400151826060015183608001518460a001518560c001518660e00151876101000151995099509950995099509950995099505050919395975091939597565b6000806040838503121561136c57600080fd5b82359150602083013560ff8116811461138457600080fd5b809150509250929050565b600080604083850312156113a257600080fd5b8235915060208301356001600160a01b038116811461138457600080fd5b6000602082840312156113d257600080fd5b5035919050565b634e487b7160e01b600052604160045260246000fd5b600082601f83011261140057600080fd5b813567ffffffffffffffff8082111561141b5761141b6113d9565b604051601f8301601f19908116603f01168101908282118183101715611443576114436113d9565b8160405283815286602085880101111561145c57600080fd5b836020870160208301376000602085830101528094505050505092915050565b6000806000806080858703121561149257600080fd5b843567ffffffffffffffff808211156114aa57600080fd5b6114b6888389016113ef565b955060208701359150808211156114cc57600080fd5b6114d8888389016113ef565b945060408701359150808211156114ee57600080fd5b506114fb878288016113ef565b949793965093946060013593505050565b6000815180845260005b8181101561153257602081850181015186830182015201611516565b506000602082860101526020601f19601f83011685010191505092915050565b634e487b7160e01b600052602160045260246000fd5b6003811061158657634e487b7160e01b600052602160045260246000fd5b9052565b60006101208b83528060208401526115a48184018c61150c565b905082810360408401526115b8818b61150c565b905082810360608401526115cc818a61150c565b91505086608083015260ff861660a08301526115eb60c0830186611568565b60e08201939093526101000152979650505050505050565b60006101008083526116178184018c61150c565b9050828103602084015261162b818b61150c565b9050828103604084015261163f818a61150c565b91505086606083015260ff8616608083015261165e60a0830186611568565b60c082019390935260e001529695505050505050565b60208082526015908201527413585c9ad95d08191bd95cc81b9bdd08195e1a5cdd605a1b604082015260600190565b634e487b7160e01b600052601160045260246000fd5b808201808211156116cc576116cc6116a3565b92915050565b80820281158282048414176116cc576116cc6116a3565b60008261170657634e487b7160e01b600052601260045260246000fd5b500490565b6020808252600990820152682737ba1037bbb732b960b91b604082015260600190565b600181811c9082168061174257607f821691505b60208210810361176257634e487b7160e01b600052602260045260246000fd5b50919050565b601f8211156117b257600081815260208120601f850160051c8101602086101561178f5750805b601f850160051c820191505b818110156117ae5782815560010161179b565b5050505b505050565b815167ffffffffffffffff8111156117d1576117d16113d9565b6117e5816117df845461172e565b84611768565b602080601f83116001811461181a57600084156118025750858301515b600019600386901b1c1916600185901b1785556117ae565b600085815260208120601f198616915b828110156118495788860151825594840194600190910190840161182a565b50858210156118675787850151600019600388901b60f8161c191681555b5050505050600190811b01905550565b600060018201611889576118896116a3565b5060010190565b6080815260006118a3608083018761150c565b82810360208401526118b5818761150c565b905082810360408401526118c9818661150c565b9150508260608301529594505050505056fea2646970667358221220828c3273d6ef9fa56abfc827ec6e361e77c79f15d5ad6d67be864c62b55853ee64736f6c63430008140033",
  "immutableReferences": {},
  "source": "// SPDX-License-Identifier: MIT\npragma solidity ^0.8.20;\n\ncontract Betting {\n    enum MarketStatus { Open, Settled, Voided }\n\n    struct Market {\n        uint256 id;\n        string sport;\n        string teamA;\n        string teamB;\n        uint256 cutoffTime;\n        uint8 winningTeam;\n        MarketStatus status;\n        uint256 totalPoolTeamA;\n        uint256 totalPoolTeamB;\n    }\n\n    address public owner;\n    uint256 public nextMarketId;\n\n    mapping(uint256 => Market) public markets;\n    mapping(uint256 => mapping(address => uint256)) public betsTeamA;\n    mapping(uint256 => mapping(address => uint256)) public betsTeamB;\n    mapping(uint256 => mapping(address => bool)) public claimed;\n\n    event MarketCreated(uint256 indexed marketId, string sport, string teamA, string teamB, uint256 cutoffTime);\n    event BetPlaced(uint256 indexed marketId, address indexed bettor, uint8 team, uint256 amount);\n    event MarketSettled(uint256 indexed marketId, uint8 winningTeam);\n    event MarketVoided(uint256 indexed marketId);\n    event WinningsClaimed(uint256 indexed marketId, address indexed bettor, uint256 amount);\n\n    modifier onlyOwner() {\n        require(msg.sender == owner, \"Not owner\");\n        _;\n    }\n\n    modifier marketExists(uint256 _marketId) {\n        require(_marketId < nextMarketId, \"Market does not exist\");\n        _;\n    }\n\n    constructor() {\n        owner = msg.sender;\n    }\n\n    function createMarket(\n        string memory _sport,\n        string memory _teamA,\n        string memory _teamB,\n        uint256 _cutoffTime\n    ) external onlyOwner {\n        require(_cutoffTime > block.timestamp, \"Cutoff must be in future\");\n        uint256 marketId = nextMarketId;\n        markets[marketId] = Market({\n            id: marketId,\n            sport: _sport,\n            teamA: _teamA,\n            teamB: _teamB,\n            cutoffTime: _cutoffTime,\n            winningTeam: 0,\n            status: MarketStatus.Open,\n            totalPoolTeamA: 0,\n            totalPoolTeamB: 0\n        });\n        nextMarketId++;\n        emit MarketCreated(marketId, _sport, _teamA, _teamB, _cutoffTime);\n    }\n\n    function placeBet(uint256 _marketId, uint8 _team)\n        external\n        payable\n        marketExists(_marketId)\n    {\n        Market storage m = markets[_marketId];\n        require(m.status == MarketStatus.Open, \"Market not open\");\n        require(block.timestamp < m.cutoffTime, \"Betting closed\");\n        require(msg.value > 0, \"No ETH sent\");\n        require(_team == 1 || _team == 2, \"Invalid team\");\n        if (_team == 1) {\n            betsTeamA[_marketId][msg.sender] += msg.value;\n            m.totalPoolTeamA += msg.value;\n        } else {\n            betsTeamB[_marketId][msg.sender] += msg.value;\n            m.totalPoolTeamB += msg.value;\n        }\n        emit BetPlaced(_marketId, msg.sender, _team, msg.value);\n    }\n\n    function settleMarket(uint256 _marketId, uint8 _winningTeam)\n        external\n        onlyOwner\n        marketExists(_marketId)\n    {\n        Market storage m = markets[_marketId];\n        require(m.status == MarketStatus.Open, \"Already settled/voided\");\n        require(_winningTeam == 1 || _winningTeam == 2, \"Invalid winning team\");\n        m.winningTeam = _winningTeam;\n        m.status = MarketStatus.Settled;\n        emit MarketSettled(_marketId, _winningTeam);\n    }\n\n    function voidMarket(uint256 _marketId)\n        external\n        onlyOwner\n        marketExists(_marketId)\n    {\n        Market storage m = markets[_marketId];\n        require(m.status == MarketStatus.Open, \"Not open\");\n        m.status = MarketStatus.Voided;\n        emit MarketVoided(_marketId);\n    }\n\n    function claim(uint256 _marketId) external marketExists(_marketId) {\n        Market storage m = markets[_marketId];\n        require(m.status == MarketStatus.Settled, \"Not settled\");\n        require(!claimed[_marketId][msg.sender], \"Already claimed\");\n        uint256 userBet;\n        uint256 winningPool;\n        uint256 losingPool;\n        if (m.winningTeam == 1) {\n            userBet = betsTeamA[_marketId][msg.sender];\n            winningPool = m.totalPoolTeamA;\n            losingPool = m.totalPoolTeamB;\n        } else {\n            userBet = betsTeamB[_marketId][msg.sender];\n            winningPool = m.totalPoolTeamB;\n            losingPool = m.totalPoolTeamA;\n        }\n        require(userBet > 0, \"No winning bet\");\n        uint256 payout = userBet + (losingPool * userBet) / winningPool;\n        claimed[_marketId][msg.sender] = true;\n        (bool success, ) = payable(msg.sender).call{value: payout}(\"\");\n        require(success, \"Transfer failed\");\n        emit WinningsClaimed(_marketId, msg.sender, payout);\n    }\n\n    function refund(uint256 _marketId) external marketExists(_marketId) {\n        Market storage m = markets[_marketId];\n        require(m.status == MarketStatus.Voided, \"Not voided\");\n        require(!claimed[_marketId][msg.sender], \"Already refunded\");\n        uint256 amount = betsTeamA[_marketId][msg.sender] + betsTeamB[_marketId][msg.sender];\n        require(amount > 0, \"Nothing to refund\");\n        claimed[_marketId][msg.sender] = true;\n        (bool success, ) = payable(msg.sender).call{value: amount}(\"\");\n        require(success, \"Refund failed\");\n    }\n\n    function getMarket(uint256 _marketId)\n        external\n        view\n        marketExists(_marketId)\n        returns (\n            string memory,\n            string memory,\n            string memory,\n            uint256,\n            uint8,\n            MarketStatus,\n            uint256,\n            uint256\n        )\n    {\n        Market memory m = markets[_marketId];\n        return (\n            m.sport,\n            m.teamA,\n            m.teamB,\n            m.cutoffTime,\n            m.winningTeam,\n            m.status,\n            m.totalPoolTeamA,\n            m.totalPoolTeamB\n        );\n    }\n\n    function getUserStake(uint256 _marketId, address _user)\n        external\n        view\n        returns (uint256 stakeA, uint256 stakeB)\n    {\n        stakeA = betsTeamA[_marketId][_user];\n        stakeB = betsTeamB[_marketId][_user];\n    }\n}\n\n",
  "sourcePath": "/Users/sulvanaabushawish/Desktop/sports-betting-dapp/blockchain/contracts/Betting.sol",
  "compiler": {
    "name": "solc",
    "version": "0.8.20+commit.a1b79de6.Emscripten.clang"
  },
  "schemaVersion": "3.4.16",
  "updatedAt": "2025-12-01T06:32:27.361Z",
  "networkType": "ethereum",
  "devdoc": {
    "kind": "dev",
    "methods": {},
    "version": 1
  },
  "userdoc": {
    "kind": "user",
    "methods": {},
    "version": 1
  }
}